:020000040800F2
:1000000000100020B91B0008D1190008D3190008FE
:1000100000000000000000000000000000000000E0
:10002000000000000000000000000000D5190008DA
:100030000000000000000000D7190008D9190008CE
:10004000091C0008091C0008091C0008091C0008FC
:10005000091C0008091C0008091C0008091C0008EC
:1000600000000000091C0008091C0008091C000809
:10007000091C0008091C0008091C0008091C0008CC
:10008000E11900080000000000000000091C000841
:1000900000000000091C0008091C0008091C0008D9
:1000A00000000000091C000800000000F119000811
:1000B0000000000000000000000000000000000040
:1000C00010B5064C2378002B07D1054B002B02D02E
:1000D000044800E000BF0123237010BD1000002081
:1000E00000000000781C0008044B10B5002B03D062
:1000F0000349044800E000BF10BDC04600000000F6
:1001000014000020781C000802B471464908490018
:10011000095C49008E4402BC7047C0460022430877
:100120008B4274D303098B425FD3030A8B4244D3BF
:10013000030B8B4228D3030C8B420DD3FF22090201
:1001400012BA030C8B4202D31212090265D0030BC0
:100150008B4219D300E0090AC30B8B4201D3CB03B6
:10016000C01A5241830B8B4201D38B03C01A5241F8
:10017000430B8B4201D34B03C01A5241030B8B42FA
:1001800001D30B03C01A5241C30A8B4201D3CB02E5
:10019000C01A5241830A8B4201D38B02C01A5241CA
:1001A000430A8B4201D34B02C01A5241030A8B42CD
:1001B00001D30B02C01A5241CDD2C3098B4201D3E5
:1001C000CB01C01A524183098B4201D38B01C01A63
:1001D000524143098B4201D34B01C01A52410309DA
:1001E0008B4201D30B01C01A5241C3088B4201D389
:1001F000CB00C01A524183088B4201D38B00C01A36
:10020000524143088B4201D34B00C01A5241411A5C
:1002100000D20146524110467047FFE701B5002069
:1002200000F006F802BDC0460029F7D076E7704717
:100230007047C04670B50500FA200D4B8000197854
:10024000FFF76CFF0B4B01001868FFF767FF00F02A
:1002500085F804000120002C09D1032D07D80238AD
:100260002200290000F03EF82000034B1D6070BD05
:10027000000000200C000020040000201023064A8B
:1002800010B5116800200B431360FFF7D3FF01F096
:1002900087FB002010BDC04600200240034A044BEB
:1002A00011681B785B1813607047C046400000203F
:1002B00000000020014B18687047C0464000002035
:1002C00070B50400FFF7F6FF0500631C02D0044B75
:1002D0001B78E418FFF7EEFF401B8442FAD870BD8C
:1002E0000000002070B58901002812DB8308134A42
:1002F00003249B009B18FF222040A0401400C0252F
:10030000844011408140AD005E59A64331435951AC
:1003100070BD03240F23C0B203402040A040FC3432
:100320002500214085408140083B054A9B089B00F1
:100330009B18DA69AA431143D961E9E700E100E0BB
:1003400000ED00E0002805DB1F2318401E3B834022
:10035000014A13607047C04600E100E0094A431EAD
:10036000012093420DD8C021074A08485360036A10
:1003700009061B021B0A0B4303620020072390603F
:1003800013607047FFFFFF0010E000E000ED00E0A9
:1003900070B5841CE37F022B04D004238363033BEA
:1003A000180070BD0E210368056C1A688A431A6034
:1003B00001221968914319601100A940C36B59606B
:1003C000E27700248318426BDC771300A242E7D067
:1003D00090472300E4E70000F0B50B6887B0029374
:1003E00000230191029ADA4001D107B0F0BD012249
:1003F0009A4003920399029A0A40009200D188E041
:10040000019A1021526816008E43022E0ED1072544
:100410001D40AD000139A940DC08A4000419276A79
:100420008F4301990969A9400F43276203245F00A4
:10043000BC40E4430568013E2540AC460325154019
:10044000BD4061460D430560012E0FD801998668B5
:10045000CD682640BD40354385604668039915093F
:100460008E4301210D409D4035434560C56801998B
:100470002C408D688021BD4049052C43C4600A4250
:1004800047D00121244C0326A5691E400D43A561D8
:10049000A4699D080C400594059C0F241F49AD00DC
:1004A000B6006D18B4409021AF68C905A743002479
:1004B000884208D01A490134884204D019490434CA
:1004C000884200D1033CB44000993C430E00AC602C
:1004D000154CCD4327683E43D10301D43E002E4046
:1004E00026606768009E3E43910301D43E002E4083
:1004F0006660A768009E3E43D10201D43E002E40B4
:10050000A660E668009F3743920201D42E40370070
:10051000E760013366E7C04600100240000001407A
:10052000000400480008004800040140002A01D0EF
:10053000816170478162FCE7F0B5040085B0002856
:1005400002D1012005B0F0BD0368DB072ED423687B
:100550009B077ED423681B0700D5BAE023685B079E
:1005600000D5DDE02368DB061AD56269B44D0423AB
:10057000012A00D049E1696B02260B436B636B6B68
:100580001A436A63FFF796FE07006B6B334200D194
:1005900034E1F8216A6BA3698A43DB0013436B6380
:1005A000236A002B00D057E10020CBE70C21A44D9B
:1005B0006A680A40042A06D06B680B40082B09D1F0
:1005C0006B68DB0306D52B689B03C0D56368002BE3
:1005D000BDD1B6E76368012B13D180232A685B0283
:1005E00013432B60FFF766FE80260700B6022B68D8
:1005F0003342ACD1FFF75EFEC01B6428F7D903205D
:10060000A0E7002B15D12B688E4A802613402B6063
:100610002B688D4AB60213402B60FFF74BFE070094
:100620002B68334293D0FFF745FEC01B6428F7D9EF
:10063000E5E7052B05D180232A68DB0213432B60F5
:10064000CBE72B687F4A13402B602B687E4A134010
:10065000C7E70C227A4D6B68134206D06B681340D3
:10066000082B11D16B68DB030ED42B689B0703D5D5
:10067000E368012B00D064E7F8212A6823698A43E4
:10068000DB0013432B6065E7E2680123002A0FD0EB
:100690002A68022613432B60FFF70CFE07002B6825
:1006A0003342E9D1FFF706FEC01B0228F7D9A6E7BF
:1006B0002A6802269A432A60FFF7FCFD07002B6890
:1006C000334200D146E7FFF7F5FDC01B0228F6D9FB
:1006D00095E7E26901235A4D002A10D06A6A022682
:1006E00013436B62FFF7E6FD07006B6A334200D0ED
:1006F00034E7FFF7DFFDC01B0228F6D97FE76A6AFF
:1007000002269A436A62FFF7D5FD07006B6A3342FF
:1007100000D123E7FFF7CEFDC01B0228F6D96EE714
:1007200080220021464D5205EB690091134208D109
:10073000EB691343EB61EB6913400393039B0123C4
:1007400000938027414E7F0033683B4206D0A36868
:10075000012B13D12A6A13432B6230E033683B43E9
:100760003360FFF7A7FD019033683B42EFD1FFF7FD
:10077000A1FD019BC01A6428F6D940E70122002B95
:1007800014D12B6A022793432B622B6A03329343C3
:100790002B62FFF78FFD06002B6A3B4225D0FFF747
:1007A00089FD2B4B801B9842F6D928E7052B0BD1EE
:1007B000296A013B0B432B622B6A1A432A62FFF71B
:1007C00079FD022706000DE02B6A934304222B6279
:1007D0002B6A9343C0E7FFF76DFD1D4B801B9842CA
:1007E00000D90CE72B6A3B42F5D0009B012B00D0CF
:1007F000B8E6EB69174A1340EB61B3E6FFF75AFD21
:10080000C01B022800D8C0E6F9E6053203D16A6BA6
:100810009A436A63BDE66A6B0226134301226B6347
:100820006B6B93436B63FFF745FD07006B6B3342C4
:1008300000D1B5E6FFF73EFDC01B0228F6D9DEE683
:1008400000100240FFFFFEFFFFFFFBFF00700040B3
:1008500088130000FFFFFFEF0C20354A5168150098
:100860000140082947D0334A022B32D12B68802619
:1008700013402B60FFF71EFD0700B6042B683342C0
:1008800021D10F22EB6A9343E26A1343EB62616A60
:10089000A36A6A680B43284980240A4013436B60AB
:1008A00080232A685B0413432B60FFF703FD0600D7
:1008B000A4042B68234200D076E6FFF7FBFC801BE4
:1008C0000228F6D99BE6FFF7F5FCC01B0228D5D914
:1008D00095E62B68802413402B60FFF7EBFC0600A5
:1008E000A4042B68234200D15EE6FFF7E3FC801BE3
:1008F0000228F6D983E61800012B00D122E68021D8
:100900005368656A4902D26A19400120A94200D0A1
:1009100018E60F210A40E16A8A4200D012E6F02070
:1009200080030340A06A1B1A581E8341D8B209E60F
:1009300000100240FFFFFFFEFFFFC2FF70B5144C26
:1009400088B010222100684601F084F9210004AD2E
:1009500010221031280001F07DF90C220D4E736831
:100960001A40082A11D10F206A46990C0140545CA4
:10097000F26A0240A95CDB0305D50748FFF7CEFB0E
:10098000604308B070BD0548FAE70348F9E7C04680
:10099000901C00080010024000127A0000093D007F
:1009A000F7B505000F00002801D10120FEBD01228E
:1009B000374C236813408B421CD329688B0722D401
:1009C000CB072FD4012322681A40974251D32B68BA
:1009D000304C5B0754D4FFF7B1FF63682E4A1B0607
:1009E0001B0FD35CD8402D4B18600020FFF722FC72
:1009F0000020DBE7236893430B4323602368134005
:100A00009942D2D1D9E7234A4B0704D5E023506855
:100A1000DB0003435360F02053688343A86803431B
:100A20005360CDE71B4E6A683368012A19D19B03D6
:100A3000BBD5032173688B4313437360FFF73AFC04
:100A400001900C2372681A406B689B009A42B9D0DF
:100A5000FFF730FC019BC01A114B9842F1D90320DB
:100A6000A4E7022A02D19B01E3D49EE79B07E0D4CE
:100A70009BE722689A43226022681A4295D1A6E732
:100A80006368084A1340EA6813436360A3E7C046FB
:100A90000020024000100240C01C00080C00002092
:100AA00088130000FFF8FFFF044B054A5B685B05F5
:100AB0005B0FD35C034A1068D840704700100240B7
:100AC000D01C00080C000020F0B5036885B00500BC
:100AD000DB0328D580220021374C5205E3690091C1
:100AE000134208D1E3691343E361E36913400393BD
:100AF000039B012300938027304E7F0033683B42E5
:100B000026D0C022236A920013402D4E32D1236A90
:100B10001E406B681E43009B2662012B03D1E369D4
:100B2000284A1340E3612A68D30706D503202249E7
:100B30000B6B8343A86803430B630020930617D510
:100B400010211D4A136B8B43E9680B4313630FE0BD
:100B500033683B433360FFF7ADFB019033683B42A2
:100B6000CFD1FFF7A7FB019BC01A6428F6D9032059
:100B700005B0F0BD69680A409342C8D08023226A5C
:100B8000206A11005B0203432362236A0E4831404E
:100B9000034023622162D307B9D5FFF78BFB07001F
:100BA0000222236A1342B2D1FFF784FB074BC01B1A
:100BB0009842F5D9DBE7C0460010024000700040C3
:100BC000FFFCFFFFFFFFFFEFFFFFFEFF88130000AA
:100BD000704770477047704770470222036810B52E
:100BE0001969040011420ED0D96811420BD0053AA0
:100BF0001A619B69043202779B0700D179E0FFF705
:100C0000E9FF00232377042223681969114210D0D9
:100C1000D96811420DD0093A1A61073222779A69D0
:100C2000C0239B0020001A4269D0FFF7D3FF0023A6
:100C3000237708222368196911420ED0D96811421E
:100C40000BD0113A1A61DB690D32227720009B0725
:100C50005BD0FFF7BFFF00232377102223681969B9
:100C6000114210D0D96811420DD0213A1A611932BF
:100C70002277DA69C0239B0020001A424BD0FFF78D
:100C8000A9FF00232377012223681969114207D0A5
:100C9000D968114204D0033A1A612000FFF798FF87
:100CA000802223681969114208D0D968114205D001
:100CB000023AFF3A1A61200000F069F940222368E5
:100CC0001969114207D0D968114204D0813A1A61DA
:100CD0002000FFF781FF202223681969114207D005
:100CE000D968114204D0413A1A61200000F04EF94F
:100CF00010BDFFF76EFF2000FFF76DFF81E7FFF7E4
:100D000068FF2000FFF767FF91E7FFF762FF200011
:100D1000FFF761FF9FE7FFF75CFF2000FFF75BFF36
:100D2000AFE700001D4A10B50368904206D080244A
:100D3000E405A04202D01A4CA0420CD17024A34377
:100D40004C68234390420FD08024E405A0420BD08E
:100D5000134CA04208D0134CA04205D0124CA04224
:100D600002D0124CA04203D1114C2340CC68234343
:100D70008024A3434C69234303608B68C3620B68E0
:100D80008362904205D0084B984202D0074B9842AC
:100D900001D10B6903630123436110BD002C0140A5
:100DA0000004004000200040004401400048014091
:100DB000FFFCFFFF70B504000120002C14D02500BB
:100DC0003D352B78DBB2002B05D122003C3213706D
:100DD000200000F055FE022320682B70211DFFF734
:100DE000A1FF012300202B7070BD000030B5846886
:100DF000034D0A431B022C4013432343836030BD41
:100E0000FF00FFFFF8B5050002233C352A780400F7
:100E10001800012A16D02600012720683D362F70C1
:100E200033708368404A134083600B68402B65D061
:100E300014D8102B0BD006D8002B08D0012300208B
:100E400033702870F8BD202B01D0302BF6D17022E2
:100E500081689143693A13430B431AE0602B35D004
:100E600019D8502BEAD14A68CB68016A046A1B0181
:100E7000BC43F02704628469BC4323430A24A14392
:100E80000A43836102627022836893431A005723E6
:100E900013438360D2E7702B0DD0802292019342DE
:100EA000CCD1CB684A688968FFF7A0FF802322680D
:100EB000DB01916807E0CB684A688968FFF796FF15
:100EC0007723226891680B439360B7E710244B683F
:100ED000CA68016A154FA1430162846912033C404C
:100EE0002243A024016A82617022A1431B010B43AB
:100EF0000362836893431A006723C9E74A68CB6893
:100F0000016A046A1B01BC43F02704628469BC4384
:100F100023430A24A1430A43836102627022836847
:100F200093431A004723B3E78800FFFFFF0FFFFF3B
:100F300070B5040002223C34257803001000012D16
:100F40001FD01D0070261B6801383D3520702A70A7
:100F500058689A68B0430E68304358600948834225
:100F600006D08020C005834202D00748834204D1C6
:100F70008020496882430A439A60012300202B7035
:100F8000207070BD002C0140000400407047704785
:100F9000036807491A680A401A609A682331FF31CA
:100FA0008A439A6020238367002303667047C04604
:100FB000DFFEFFFF70B5846F03000220202C41D1BB
:100FC000013800293ED0002A3CD080259C686D0164
:100FD000AC4204D11D69002D01D1014232D11D0066
:100FE00070352E780220012E2CD0013828705965DA
:100FF000190058310A804A80802000211A001966A1
:1010000040015C32844220D1196900291BD1134967
:10101000118000220121DA6722329A671A689068EB
:1010200001439160802149018C4215D11969002941
:1010300012D10B4919669023002011685B000B4305
:101040002870136070BDFF21E2E7002CE0D1196920
:101050000029F8D07F21DBE70249EBE7FF01000020
:10106000CD1000086D10000870470000826F10B5A9
:101070000368222A23D102005C329B8C1288134021
:10108000426D13700200436D5A3201334365138879
:10109000013B9BB2138013889BB2002B0ED10268D8
:1010A000094C11682140116091682334FF34A14339
:1010B000916020220366826700F064FB10BD082265
:1010C00099690A439A61F9E7DFFEFFFF826F10B565
:1010D0000368222A21D101005C319C8C0988426D71
:1010E000214011800100023242655A310A88013ADA
:1010F00092B20A800A8892B2002A0DD11968094C6E
:101100002140196099682334FF34A143996020235A
:101110000266836700F036FB10BD082299690A4316
:101120009A61F9E7DFFEFFFF70470000F8B503683A
:101130000400DA69504819689E6802420BD12020E9
:10114000024200D176E0014200D173E0236E20001C
:10115000002B65D165E001203500054003D19027C3
:101160007F00394266D0024205D0CE0503D5186211
:10117000E66F3043E0670220024206D0002D04D023
:101180001862E66F00183043E0670420024206D080
:10119000002D04D01862E66F02383043E067100774
:1011A00008D5880601D4002D04D008201862E56F08
:1011B0002843E06780200001024206D04D0104D59B
:1011C00018622023E06F0343E367E36F002B28D00E
:1011D00020231A4206D0194204D0236E002B01D0DE
:1011E000200098472368E56F9B6820005B0602D4C7
:1011F00028231D401AD0FFF7CBFE402123689A68B0
:101200000A420FD09A68E06E8A439A60002809D09B
:101210001A4B4363FFF7BCF8002802D0E06E436B23
:101220009847F8BD2000FFF77FFFFAE7FFF77CFF44
:10123000E567F6E780204003024206D0750204D538
:101240001862200000F03CFAEBE78020024203D055
:10125000014201D0636E7AE740200242E1D00142B0
:10126000DFD01A6882431A602023636700232000BE
:101270006366FFF7F9FED4E70F080000811200084B
:10128000406A0023020010B55A321380083A1380D6
:10129000FFF74AFF10BD000070B504002569A36880
:1012A00002682B436569C1692B4310683E4D0B43AF
:1012B00028400343136053683C48256A0340E068B4
:1012C00003435360A36990682B43394D284003437F
:1012D00093600322374B384D1B6B1340374AD05C69
:1012E00080231B02994235D1082826D8FEF70CFF2F
:1012F00005250B251D2525252000FFF7D5FB636857
:1013000040005B0802E0636858082D4BC018616814
:10131000FEF704FF83B200201A00103AAA420FD948
:10132000012000232366636670BDFFF707FBE6E735
:101330006368580880235B02E8E701200023EBE79D
:101340000F22190091430A001B0721685B0F13430A
:10135000CB60E6E7082823D8FEF7D6FE05220A224E
:101360001A2222221D00FFF79FFB63685B0802E040
:1013700063685808134BC0186168FEF7CFFE83B24C
:1013800000201A00103AAA42CAD82268D360C8E7DF
:10139000FFF7D4FAE9E76368580880231B02EAE7FD
:1013A00001200023EDE7C046F369FFFFFFCFFFFFF9
:1013B000FFF4FFFF00100240EFFF0000B01C000828
:1013C0000024F40000127A00436A30B5DA0706D52B
:1013D0000168284C4A682240846A22434A609A077E
:1013E00006D50168244C4A682240C46A22434A60F8
:1013F0005A0706D50168214C4A682240046B2243F3
:101400004A601A0706D501681D4C4A682240446BA1
:1014100022434A60DA0606D501681A4C8A682240DF
:10142000846B22438A609A0606D50168164C8A6846
:101430002240C46B22438A605A0610D50168134DBE
:101440004A68046C2A4022434A6080225203944234
:1014500005D14A680E4C2240446C22434A601B0668
:1014600006D502680B4953680B40816C0B435360EF
:1014700030BDC046FFFFFDFFFFFFFEFFFFFFFBFF8C
:10148000FF7FFFFFFFEFFFFFFFDFFFFFFFFFEFFF2C
:10149000FFFF9FFFFFFFF7FFF7B5802704000E0057
:1014A000150001933F012268D36933409B1B5942C9
:1014B0004B41AB4201D000201CE0089B0133F3D02C
:1014C000FEF7F8FE019B089AC01A2368824201D3F6
:1014D000002A10D11A6813490A401A609A68A33189
:1014E000FF318A439A6020236367A36700230320A8
:1014F00070342370FEBD04211A680A42D3D0DA6921
:101500003A42D0D01F621A6806490A401A609A68A7
:10151000A331FF318A439A6020236367A367E3679F
:10152000E4E7C0465FFEFFFFF0B587B00593436F69
:1015300004000D0017000220202B49D1013800299A
:1015400046D0002A44D08023A2685B019A4204D18D
:101550002369002B01D101423AD1230070331A785C
:101560000220012A34D0012200261A702123E667C6
:101570006367FEF79FFE230050331F8002330393FF
:101580001F808023A26804905B019A4204D12369E2
:10159000B34201D12E001D00230052331A88059B4F
:1015A00092B20093049B002A0AD140212000FFF749
:1015B00073FF00280BD1202370346360207007E094
:1015C000002280212000FFF767FF002802D00320BF
:1015D00007B0F0BD2268002D0BD133880236DB0541
:1015E000DB0D1385039B039A1B88013B9BB2138081
:1015F000D2E72B7801351385F4E7000073B5002698
:101600000400C667FEF756FE236805001B681B072B
:1016100015D423681B685B070AD580210E4B002276
:101620000093C9032B002000FFF736FF002811D1DB
:10163000202300206367A367703420700BE08021B3
:10164000054B32000093890303002000FFF724FFBD
:101650000028DED0032076BDFFFFFF0110B5041E79
:1016600001D1012010BD436F002B04D10200703264
:10167000137000F065FA2423012122686367136860
:1016800020008B431360FFF707FE0128E9D0636A4F
:10169000002B02D02000FFF797FE236807495A6805
:1016A00020000A402A215A609A688A439A600122DF
:1016B00019680A431A60FFF7A1FFD3E7FFB7FFFFDE
:1016C0007047000030B587B01422002101A800F057
:1016D000CAFA80209025124A80025169ED05014323
:1016E00051615369FF210340002200932800009BB1
:1016F000FEF71CFFFF230024019301A9FE3B2800F5
:10170000029303940494FEF767FEC02301A9DB0152
:101710002800019302940394FEF75EFE07B030BDEB
:101720000010024070B5102694B03022002108A8A5
:1017300000F099FA32000021684600F094FA320075
:10174000002104A800F08FFAA023022401259B03A6
:1017500008A80894109412930B950C96FEF7ECFED3
:1017600007230194002429006846009302940394FF
:10177000FFF716F904A804950694FFF7A5F914B02D
:1017800070BD0000164B026870B59A421AD1154A16
:1017900015491378002B04D10B78A02B01D19F3B66
:1017A00013701478012C09D11048114D03780E786C
:1017B000EE540133DBB20F2B05D0037001220D482C
:1017C000FFF7F8FB70BD002303701370AB7B0A2B8F
:1017D000F4D1094B1A78002AF0D11C70EEE7C0460C
:1017E000003801403D0000203B0000203E0000206A
:1017F0002C000020840000203C00002010B5902424
:10180000E405200000220121FEF790FE20000122C5
:101810000221FEF78BFE002204212000FEF786FE47
:1018200010BD10B50A20902400F046F90122E4050D
:1018300011002000FEF77AFE0A2000F03DF9002298
:1018400001212000FEF772FE0A2000F035F910BDDC
:10185000F8B59026050008240A27F6050022022183
:101860003000FEF763FE380000F026F90122042163
:101870002A403000FEF75AFE380000F01DF9013C06
:10188000012202213000FEF751FEE4B2380000F0E0
:1018900013F96D08002CE1D1F8BD10B50400FFF775
:1018A000C0FF2000FFF7D4FF10BD70B50D0004008D
:1018B000FFF7B7FF0F200440B1302043FFF7C8FF08
:1018C0002800FFF7C5FF70BD70B503780500A02B99
:1018D00016D1837B0A2B13D100242B195978094B7D
:1018E000E05C0134FFF7E1FF0C2CF6D1687B0028A7
:1018F00001D0FFF7D2FF0F220021034800F0B3F917
:1019000070BDC046B41C00082C000020F8B5FEF7DE
:10191000B5FCFFF707FFFFF7D5FE00F0F5F800F084
:1019200071F8FFF76BFF4420FFF7B7FF8820FFF740
:10193000B4FF144F012214493800FFF73BFB012488
:101940002000FEF7BDFC114E3378012BF8D1104872
:10195000FFF7BAFF0F4B22000F493800FFF7E4FDF5
:101960009020002522000821C0053570FEF7DEFD1D
:101970002000FEF7A5FC90202A000821C005FEF7F4
:10198000D5FDDDE7840000203B0000203C00002066
:101990002C000020FFFF000008000020704700001E
:1019A00001200A4B82B099690143996180219A69AB
:1019B000490502400092009ADA690A43DA61DB695C
:1019C0000B400193019B02B07047C04600100240DB
:1019D0007047FEE77047704710B5FEF75FFC10BD1B
:1019E00010B50248FFF7F9F810BDC04644000020CA
:1019F00010B50248FFF79AFB10BDC04684000020D6
:101A00007047000010B586B01022002102A800F037
:101A10002AF908220021684600F025F9154C164BDA
:101A2000164A23602F23636000232000A3602361F4
:101A30008033E260A361FFF7BDF9002801D0FFF712
:101A4000ADFF802302A95B0120000293FFF7DAF9C2
:101A5000002801D0FFF7A2FF002369462000009371
:101A60000193FFF765FA002801D0FFF797FF06B052
:101A700010BDC0464400002000040040FFFF0000ED
:101A800007B50B4B02689A4210D10220094AD1696E
:101A90000143D161D3690022034001930E3011004C
:101AA000019BFEF71FFC1020FEF74CFC07BDC04653
:101AB000000400400010024037B5124DFA21AB6817
:101AC0008900009303005A1E93416C68C01A0134C8
:101AD0006043FEF723FB0022009B0193AB68009359
:101AE0000199009B994209D20199009BE31A5B1866
:101AF000D218009B01939042F0D837BD019B00990A
:101B00005B1AF5E710E000E00B480C4B10B50360E2
:101B1000E1235B0243600C22002342618360C360C7
:101B200003618361C36103624362FFF797FD00288D
:101B300001D0FFF733FF10BD8400002000380140C2
:101B400010B5040088B01422002103A800F08BF81F
:101B5000174B22689A4228D18020164BC001996900
:101B60000143996180219A69890202400192019A98
:101B70005A6990200A435A615B69C0050B40029381
:101B8000029BC023DB0003930223049301330693DB
:101B900003A9023B0793FEF71FFC00221B20110044
:101BA000FEF7A0FB1B20FEF7CDFB08B010BDC04622
:101BB00000380140001002400D4885460D480E498E
:101BC0000E4A002302E0D458C4500433C4188C4297
:101BD000F9D30B4A0B4C002301E013600432A242FC
:101BE000FBD3FFF70DFF00F011F8FFF78FFEFEE7C4
:101BF000001000200000002010000020E01C000861
:101C00001000002004010020FEE7000070B500264F
:101C10000C4D0D4C641BA410A64209D1002600F007
:101C20002BF80A4D0A4C641BA410A64205D170BDC6
:101C3000B300EB5898470136EEE7B300EB589847EE
:101C40000136F2E7D81C0008D81C0008D81C000890
:101C5000DC1C0008002310B59A4200D110BDCC5CFA
:101C6000C4540133F8E703008218934200D170474F
:101C700019700133F9E70000F8B5C046F8BC08BC9C
:101C80009E467047F8B5C046F8BC08BC9E467047F3
:101C900002030405060708090A0B0C0D0E0F1010AD
:101CA0000102030405060708090A0B0C0D0E0F10AC
:101CB0000004080200010203040506080A0C0E0FC6
:101CC00000000000000000000102030406070809EC
:081CD000000000000102030402
:041CD800E900000817
:041CDC00C10000083B
:101CE00001000000040000000D00000000127A0056
:0400000508001BB91B
:00000001FF
